{
  "contractName": "Dapz",
  "abi": [
    {
      "inputs": [],
      "stateMutability": "nonpayable",
      "type": "constructor"
    },
    {
      "anonymous": false,
      "inputs": [
        {
          "indexed": true,
          "internalType": "address",
          "name": "owner",
          "type": "address"
        },
        {
          "indexed": true,
          "internalType": "address",
          "name": "spender",
          "type": "address"
        },
        {
          "indexed": false,
          "internalType": "uint256",
          "name": "value",
          "type": "uint256"
        }
      ],
      "name": "Approval",
      "type": "event"
    },
    {
      "anonymous": false,
      "inputs": [
        {
          "indexed": false,
          "internalType": "address",
          "name": "bruh1",
          "type": "address"
        },
        {
          "indexed": false,
          "internalType": "address",
          "name": "bruh2",
          "type": "address"
        }
      ],
      "name": "Bruh",
      "type": "event"
    },
    {
      "anonymous": false,
      "inputs": [
        {
          "indexed": true,
          "internalType": "address",
          "name": "previousOwner",
          "type": "address"
        },
        {
          "indexed": true,
          "internalType": "address",
          "name": "newOwner",
          "type": "address"
        }
      ],
      "name": "OwnershipTransferred",
      "type": "event"
    },
    {
      "anonymous": false,
      "inputs": [
        {
          "indexed": true,
          "internalType": "address",
          "name": "from",
          "type": "address"
        },
        {
          "indexed": true,
          "internalType": "address",
          "name": "to",
          "type": "address"
        },
        {
          "indexed": false,
          "internalType": "uint256",
          "name": "value",
          "type": "uint256"
        }
      ],
      "name": "Transfer",
      "type": "event"
    },
    {
      "inputs": [
        {
          "internalType": "address",
          "name": "owner",
          "type": "address"
        },
        {
          "internalType": "address",
          "name": "spender",
          "type": "address"
        }
      ],
      "name": "allowance",
      "outputs": [
        {
          "internalType": "uint256",
          "name": "",
          "type": "uint256"
        }
      ],
      "stateMutability": "view",
      "type": "function",
      "constant": true
    },
    {
      "inputs": [
        {
          "internalType": "address",
          "name": "spender",
          "type": "address"
        },
        {
          "internalType": "uint256",
          "name": "amount",
          "type": "uint256"
        }
      ],
      "name": "approve",
      "outputs": [
        {
          "internalType": "bool",
          "name": "",
          "type": "bool"
        }
      ],
      "stateMutability": "nonpayable",
      "type": "function"
    },
    {
      "inputs": [
        {
          "internalType": "address",
          "name": "account",
          "type": "address"
        }
      ],
      "name": "balanceOf",
      "outputs": [
        {
          "internalType": "uint256",
          "name": "",
          "type": "uint256"
        }
      ],
      "stateMutability": "view",
      "type": "function",
      "constant": true
    },
    {
      "inputs": [],
      "name": "dailyReward",
      "outputs": [
        {
          "internalType": "uint256",
          "name": "",
          "type": "uint256"
        }
      ],
      "stateMutability": "view",
      "type": "function",
      "constant": true
    },
    {
      "inputs": [],
      "name": "decimals",
      "outputs": [
        {
          "internalType": "uint8",
          "name": "",
          "type": "uint8"
        }
      ],
      "stateMutability": "view",
      "type": "function",
      "constant": true
    },
    {
      "inputs": [
        {
          "internalType": "address",
          "name": "spender",
          "type": "address"
        },
        {
          "internalType": "uint256",
          "name": "subtractedValue",
          "type": "uint256"
        }
      ],
      "name": "decreaseAllowance",
      "outputs": [
        {
          "internalType": "bool",
          "name": "",
          "type": "bool"
        }
      ],
      "stateMutability": "nonpayable",
      "type": "function"
    },
    {
      "inputs": [
        {
          "internalType": "address",
          "name": "spender",
          "type": "address"
        },
        {
          "internalType": "uint256",
          "name": "addedValue",
          "type": "uint256"
        }
      ],
      "name": "increaseAllowance",
      "outputs": [
        {
          "internalType": "bool",
          "name": "",
          "type": "bool"
        }
      ],
      "stateMutability": "nonpayable",
      "type": "function"
    },
    {
      "inputs": [],
      "name": "maxSupply",
      "outputs": [
        {
          "internalType": "uint256",
          "name": "",
          "type": "uint256"
        }
      ],
      "stateMutability": "view",
      "type": "function",
      "constant": true
    },
    {
      "inputs": [],
      "name": "name",
      "outputs": [
        {
          "internalType": "string",
          "name": "",
          "type": "string"
        }
      ],
      "stateMutability": "view",
      "type": "function",
      "constant": true
    },
    {
      "inputs": [],
      "name": "owner",
      "outputs": [
        {
          "internalType": "address",
          "name": "",
          "type": "address"
        }
      ],
      "stateMutability": "view",
      "type": "function",
      "constant": true
    },
    {
      "inputs": [],
      "name": "renounceOwnership",
      "outputs": [],
      "stateMutability": "nonpayable",
      "type": "function"
    },
    {
      "inputs": [],
      "name": "symbol",
      "outputs": [
        {
          "internalType": "string",
          "name": "",
          "type": "string"
        }
      ],
      "stateMutability": "view",
      "type": "function",
      "constant": true
    },
    {
      "inputs": [],
      "name": "totalSupply",
      "outputs": [
        {
          "internalType": "uint256",
          "name": "",
          "type": "uint256"
        }
      ],
      "stateMutability": "view",
      "type": "function",
      "constant": true
    },
    {
      "inputs": [
        {
          "internalType": "address",
          "name": "recipient",
          "type": "address"
        },
        {
          "internalType": "uint256",
          "name": "amount",
          "type": "uint256"
        }
      ],
      "name": "transfer",
      "outputs": [
        {
          "internalType": "bool",
          "name": "",
          "type": "bool"
        }
      ],
      "stateMutability": "nonpayable",
      "type": "function"
    },
    {
      "inputs": [
        {
          "internalType": "address",
          "name": "sender",
          "type": "address"
        },
        {
          "internalType": "address",
          "name": "recipient",
          "type": "address"
        },
        {
          "internalType": "uint256",
          "name": "amount",
          "type": "uint256"
        }
      ],
      "name": "transferFrom",
      "outputs": [
        {
          "internalType": "bool",
          "name": "",
          "type": "bool"
        }
      ],
      "stateMutability": "nonpayable",
      "type": "function"
    },
    {
      "inputs": [
        {
          "internalType": "address",
          "name": "newOwner",
          "type": "address"
        }
      ],
      "name": "transferOwnership",
      "outputs": [],
      "stateMutability": "nonpayable",
      "type": "function"
    },
    {
      "inputs": [],
      "name": "getDifficulty",
      "outputs": [
        {
          "internalType": "uint256",
          "name": "",
          "type": "uint256"
        }
      ],
      "stateMutability": "view",
      "type": "function",
      "constant": true
    },
    {
      "inputs": [
        {
          "internalType": "uint256",
          "name": "newDifficulty",
          "type": "uint256"
        }
      ],
      "name": "setDifficulty",
      "outputs": [],
      "stateMutability": "nonpayable",
      "type": "function"
    },
    {
      "inputs": [],
      "name": "getChallenge",
      "outputs": [
        {
          "internalType": "uint256",
          "name": "",
          "type": "uint256"
        }
      ],
      "stateMutability": "view",
      "type": "function",
      "constant": true
    },
    {
      "inputs": [
        {
          "internalType": "uint256",
          "name": "newChallenge",
          "type": "uint256"
        }
      ],
      "name": "setChallenge",
      "outputs": [],
      "stateMutability": "nonpayable",
      "type": "function"
    },
    {
      "inputs": [
        {
          "internalType": "address",
          "name": "friend",
          "type": "address"
        }
      ],
      "name": "getRoll",
      "outputs": [
        {
          "internalType": "uint256",
          "name": "",
          "type": "uint256"
        }
      ],
      "stateMutability": "view",
      "type": "function",
      "constant": true
    },
    {
      "inputs": [
        {
          "internalType": "address",
          "name": "friend",
          "type": "address"
        }
      ],
      "name": "isTimedOut",
      "outputs": [
        {
          "internalType": "bool",
          "name": "",
          "type": "bool"
        }
      ],
      "stateMutability": "view",
      "type": "function",
      "constant": true
    },
    {
      "inputs": [
        {
          "internalType": "address",
          "name": "friend",
          "type": "address"
        }
      ],
      "name": "DailyRoll",
      "outputs": [],
      "stateMutability": "nonpayable",
      "type": "function"
    }
  ],
  "bytecode": "0x60806040523480156200001157600080fd5b506040518060400160405280600781526020017f4461702d75707a000000000000000000000000000000000000000000000000008152506040518060400160405280600481526020017f4441505a000000000000000000000000000000000000000000000000000000008152506200009e620000926200018460201b60201c565b6200018c60201b60201c565b8160049080519060200190620000b692919062000250565b508060059080519060200190620000cf92919062000250565b505050600a4244620000e29190620005b3565b604051602001620000f491906200031b565b6040516020818303038152906040528051906020012060001c620001199190620005b3565b60068190555060006006541115620001345760016006819055505b600654600a62000145919062000393565b6007819055506002600654600b6200015e919062000521565b6200016a9190620003e4565b60088190555066038d7ea4c6800060098190555062000685565b600033905090565b60008060009054906101000a900473ffffffffffffffffffffffffffffffffffffffff169050816000806101000a81548173ffffffffffffffffffffffffffffffffffffffff021916908373ffffffffffffffffffffffffffffffffffffffff1602179055508173ffffffffffffffffffffffffffffffffffffffff168173ffffffffffffffffffffffffffffffffffffffff167f8be0079c531659141344cd1fd0a4f28419497f9722a3daafe3b4186f6b6457e060405160405180910390a35050565b8280546200025e9062000573565b90600052602060002090601f016020900481019282620002825760008555620002ce565b82601f106200029d57805160ff1916838001178555620002ce565b82800160010185558215620002ce579182015b82811115620002cd578251825591602001919060010190620002b0565b5b509050620002dd9190620002e1565b5090565b5b80821115620002fc576000816000905550600101620002e2565b5090565b620003156200030f826200055c565b620005a9565b82525050565b600062000329828462000300565b60208201915081905092915050565b6000808291508390505b60018511156200038a57808604811115620003625762000361620005eb565b5b6001851615620003725780820291505b8081029050620003828562000678565b945062000342565b94509492505050565b6000620003a0826200055c565b9150620003ad836200055c565b9250620003dc7fffffffffffffffffffffffffffffffffffffffffffffffffffffffffffffffff848462000435565b905092915050565b6000620003f1826200055c565b9150620003fe8362000566565b92506200042d7fffffffffffffffffffffffffffffffffffffffffffffffffffffffffffffffff848462000435565b905092915050565b6000826200044757600190506200051a565b816200045757600090506200051a565b81600181146200047057600281146200047b57620004b1565b60019150506200051a565b60ff84111562000490576200048f620005eb565b5b8360020a915084821115620004aa57620004a9620005eb565b5b506200051a565b5060208310610133831016604e8410600b8410161715620004eb5782820a905083811115620004e557620004e4620005eb565b5b6200051a565b620004fa848484600162000338565b92509050818404811115620005145762000513620005eb565b5b81810290505b9392505050565b60006200052e826200055c565b91506200053b836200055c565b925082821015620005515762000550620005eb565b5b828203905092915050565b6000819050919050565b600060ff82169050919050565b600060028204905060018216806200058c57607f821691505b60208210811415620005a357620005a262000649565b5b50919050565b6000819050919050565b6000620005c0826200055c565b9150620005cd836200055c565b925082620005e057620005df6200061a565b5b828206905092915050565b7f4e487b7100000000000000000000000000000000000000000000000000000000600052601160045260246000fd5b7f4e487b7100000000000000000000000000000000000000000000000000000000600052601260045260246000fd5b7f4e487b7100000000000000000000000000000000000000000000000000000000600052602260045260246000fd5b60008160011c9050919050565b612be280620006956000396000f3fe608060405234801561001057600080fd5b506004361061014d5760003560e01c8063759014f0116100c3578063a9059cbb1161007c578063a9059cbb146103b4578063b6baffe3146103e4578063c964ad4514610402578063d5abeb0114610420578063dd62ed3e1461043e578063f2fde38b1461046e5761014d565b8063759014f0146102de5780638da5cb5b146102fc57806390e608061461031a57806395d89b411461034a5780639f501e1f14610368578063a457c2d7146103845761014d565b806326635c721161011557806326635c721461021e578063313ce5671461023a5780633950935114610258578063602512e11461028857806370a08231146102a4578063715018a6146102d45761014d565b806306fdde0314610152578063095ea7b314610170578063128cc135146101a057806318160ddd146101d057806323b872dd146101ee575b600080fd5b61015a61048a565b6040516101679190612528565b60405180910390f35b61018a60048036038101906101859190611fd4565b61051c565b604051610197919061250d565b60405180910390f35b6101ba60048036038101906101b59190611f20565b61053a565b6040516101c7919061250d565b60405180910390f35b6101d86105cd565b6040516101e5919061268a565b60405180910390f35b61020860048036038101906102039190611f85565b6105d7565b604051610215919061250d565b60405180910390f35b61023860048036038101906102339190612010565b6106cf565b005b610242610755565b60405161024f91906126a5565b60405180910390f35b610272600480360381019061026d9190611fd4565b61075e565b60405161027f919061250d565b60405180910390f35b6102a2600480360381019061029d9190612010565b61080a565b005b6102be60048036038101906102b99190611f20565b6108e5565b6040516102cb919061268a565b60405180910390f35b6102dc61092e565b005b6102e66109b6565b6040516102f3919061268a565b60405180910390f35b6103046109c0565b60405161031191906124c9565b60405180910390f35b610334600480360381019061032f9190611f20565b6109e9565b604051610341919061268a565b60405180910390f35b610352610a6f565b60405161035f9190612528565b60405180910390f35b610382600480360381019061037d9190611f20565b610b01565b005b61039e60048036038101906103999190611fd4565b610f44565b6040516103ab919061250d565b60405180910390f35b6103ce60048036038101906103c99190611fd4565b61102f565b6040516103db919061250d565b60405180910390f35b6103ec61104d565b6040516103f9919061268a565b60405180910390f35b61040a611057565b604051610417919061268a565b60405180910390f35b61042861105d565b604051610435919061268a565b60405180910390f35b61045860048036038101906104539190611f49565b611063565b604051610465919061268a565b60405180910390f35b61048860048036038101906104839190611f20565b6110ea565b005b60606004805461049990612a35565b80601f01602080910402602001604051908101604052809291908181526020018280546104c590612a35565b80156105125780601f106104e757610100808354040283529160200191610512565b820191906000526020600020905b8154815290600101906020018083116104f557829003601f168201915b5050505050905090565b60006105306105296111e2565b84846111ea565b6001905092915050565b6000600c60003373ffffffffffffffffffffffffffffffffffffffff1673ffffffffffffffffffffffffffffffffffffffff16815260200190815260200160002060008373ffffffffffffffffffffffffffffffffffffffff1673ffffffffffffffffffffffffffffffffffffffff16815260200190815260200160002060009054906101000a900460ff169050919050565b6000600354905090565b60006105e48484846113b5565b6000600260008673ffffffffffffffffffffffffffffffffffffffff1673ffffffffffffffffffffffffffffffffffffffff168152602001908152602001600020600061062f6111e2565b73ffffffffffffffffffffffffffffffffffffffff1673ffffffffffffffffffffffffffffffffffffffff168152602001908152602001600020549050828110156106af576040517f08c379a00000000000000000000000000000000000000000000000000000000081526004016106a6906125ca565b60405180910390fd5b6106c3856106bb6111e2565b8584036111ea565b60019150509392505050565b6106d76111e2565b73ffffffffffffffffffffffffffffffffffffffff166106f56109c0565b73ffffffffffffffffffffffffffffffffffffffff161461074b576040517f08c379a0000000000000000000000000000000000000000000000000000000008152600401610742906125ea565b60405180910390fd5b8060078190555050565b60006012905090565b600061080061076b6111e2565b8484600260006107796111e2565b73ffffffffffffffffffffffffffffffffffffffff1673ffffffffffffffffffffffffffffffffffffffff16815260200190815260200160002060008873ffffffffffffffffffffffffffffffffffffffff1673ffffffffffffffffffffffffffffffffffffffff168152602001908152602001600020546107fb91906126dc565b6111ea565b6001905092915050565b6108126111e2565b73ffffffffffffffffffffffffffffffffffffffff166108306109c0565b73ffffffffffffffffffffffffffffffffffffffff1614610886576040517f08c379a000000000000000000000000000000000000000000000000000000000815260040161087d906125ea565b60405180910390fd5b60016006541015801561089c5750600960065411155b6108a557600080fd5b806006819055506002600654600b6108bd9190612979565b6108c79190612801565b600881905550600654600a6108dc91906127b6565b60078190555050565b6000600160008373ffffffffffffffffffffffffffffffffffffffff1673ffffffffffffffffffffffffffffffffffffffff168152602001908152602001600020549050919050565b6109366111e2565b73ffffffffffffffffffffffffffffffffffffffff166109546109c0565b73ffffffffffffffffffffffffffffffffffffffff16146109aa576040517f08c379a00000000000000000000000000000000000000000000000000000000081526004016109a1906125ea565b60405180910390fd5b6109b46000611639565b565b6000600754905090565b60008060009054906101000a900473ffffffffffffffffffffffffffffffffffffffff16905090565b6000600a60003373ffffffffffffffffffffffffffffffffffffffff1673ffffffffffffffffffffffffffffffffffffffff16815260200190815260200160002060008373ffffffffffffffffffffffffffffffffffffffff1673ffffffffffffffffffffffffffffffffffffffff168152602001908152602001600020549050919050565b606060058054610a7e90612a35565b80601f0160208091040260200160405190810160405280929190818152602001828054610aaa90612a35565b8015610af75780601f10610acc57610100808354040283529160200191610af7565b820191906000526020600020905b815481529060010190602001808311610ada57829003601f168201915b5050505050905090565b600c60003373ffffffffffffffffffffffffffffffffffffffff1673ffffffffffffffffffffffffffffffffffffffff16815260200190815260200160002060008273ffffffffffffffffffffffffffffffffffffffff1673ffffffffffffffffffffffffffffffffffffffff16815260200190815260200160002060009054906101000a900460ff16158015610c1f5750600c60008273ffffffffffffffffffffffffffffffffffffffff1673ffffffffffffffffffffffffffffffffffffffff16815260200190815260200160002060003373ffffffffffffffffffffffffffffffffffffffff1673ffffffffffffffffffffffffffffffffffffffff16815260200190815260200160002060009054906101000a900460ff16155b15610c3357610c2e33826116fd565b610f41565b600c60003373ffffffffffffffffffffffffffffffffffffffff1673ffffffffffffffffffffffffffffffffffffffff16815260200190815260200160002060008273ffffffffffffffffffffffffffffffffffffffff1673ffffffffffffffffffffffffffffffffffffffff16815260200190815260200160002060009054906101000a900460ff168015610d4f5750600c60008273ffffffffffffffffffffffffffffffffffffffff1673ffffffffffffffffffffffffffffffffffffffff16815260200190815260200160002060003373ffffffffffffffffffffffffffffffffffffffff1673ffffffffffffffffffffffffffffffffffffffff16815260200190815260200160002060009054906101000a900460ff165b15610da4576000610d6033836118d5565b90506000610d6e83336118d5565b9050818015610d7a5750805b15610d9857610d89338461196c565b610d9333846116fd565b610d9d565b600080fd5b5050610f40565b600c60003373ffffffffffffffffffffffffffffffffffffffff1673ffffffffffffffffffffffffffffffffffffffff16815260200190815260200160002060008273ffffffffffffffffffffffffffffffffffffffff1673ffffffffffffffffffffffffffffffffffffffff16815260200190815260200160002060009054906101000a900460ff1615610e61576000610e3f33836118d5565b90508015610e5657610e5133836116fd565b610e5b565b600080fd5b50610f3f565b600c60008273ffffffffffffffffffffffffffffffffffffffff1673ffffffffffffffffffffffffffffffffffffffff16815260200190815260200160002060003373ffffffffffffffffffffffffffffffffffffffff1673ffffffffffffffffffffffffffffffffffffffff16815260200190815260200160002060009054906101000a900460ff1615610f3e57610efa33826116fd565b610f043382611a9a565b7f4e7f5f8d8927acc0405bcfb7131e920a7a2917f40fd5bfcff8dd29a33697182a8133604051610f359291906124e4565b60405180910390a15b5b5b5b50565b60008060026000610f536111e2565b73ffffffffffffffffffffffffffffffffffffffff1673ffffffffffffffffffffffffffffffffffffffff16815260200190815260200160002060008573ffffffffffffffffffffffffffffffffffffffff1673ffffffffffffffffffffffffffffffffffffffff16815260200190815260200160002054905082811015611010576040517f08c379a00000000000000000000000000000000000000000000000000000000081526004016110079061264a565b60405180910390fd5b61102461101b6111e2565b858584036111ea565b600191505092915050565b600061104361103c6111e2565b84846113b5565b6001905092915050565b6000600654905090565b60085481565b60095481565b6000600260008473ffffffffffffffffffffffffffffffffffffffff1673ffffffffffffffffffffffffffffffffffffffff16815260200190815260200160002060008373ffffffffffffffffffffffffffffffffffffffff1673ffffffffffffffffffffffffffffffffffffffff16815260200190815260200160002054905092915050565b6110f26111e2565b73ffffffffffffffffffffffffffffffffffffffff166111106109c0565b73ffffffffffffffffffffffffffffffffffffffff1614611166576040517f08c379a000000000000000000000000000000000000000000000000000000000815260040161115d906125ea565b60405180910390fd5b600073ffffffffffffffffffffffffffffffffffffffff168173ffffffffffffffffffffffffffffffffffffffff1614156111d6576040517f08c379a00000000000000000000000000000000000000000000000000000000081526004016111cd9061256a565b60405180910390fd5b6111df81611639565b50565b600033905090565b600073ffffffffffffffffffffffffffffffffffffffff168373ffffffffffffffffffffffffffffffffffffffff16141561125a576040517f08c379a00000000000000000000000000000000000000000000000000000000081526004016112519061262a565b60405180910390fd5b600073ffffffffffffffffffffffffffffffffffffffff168273ffffffffffffffffffffffffffffffffffffffff1614156112ca576040517f08c379a00000000000000000000000000000000000000000000000000000000081526004016112c19061258a565b60405180910390fd5b80600260008573ffffffffffffffffffffffffffffffffffffffff1673ffffffffffffffffffffffffffffffffffffffff16815260200190815260200160002060008473ffffffffffffffffffffffffffffffffffffffff1673ffffffffffffffffffffffffffffffffffffffff168152602001908152602001600020819055508173ffffffffffffffffffffffffffffffffffffffff168373ffffffffffffffffffffffffffffffffffffffff167f8c5be1e5ebec7d5bd14f71427d1e84f3dd0314c0f7b2291e5b200ac8c7c3b925836040516113a8919061268a565b60405180910390a3505050565b600073ffffffffffffffffffffffffffffffffffffffff168373ffffffffffffffffffffffffffffffffffffffff161415611425576040517f08c379a000000000000000000000000000000000000000000000000000000000815260040161141c9061260a565b60405180910390fd5b600073ffffffffffffffffffffffffffffffffffffffff168273ffffffffffffffffffffffffffffffffffffffff161415611495576040517f08c379a000000000000000000000000000000000000000000000000000000000815260040161148c9061254a565b60405180910390fd5b6114a0838383611d8b565b6000600160008573ffffffffffffffffffffffffffffffffffffffff1673ffffffffffffffffffffffffffffffffffffffff16815260200190815260200160002054905081811015611527576040517f08c379a000000000000000000000000000000000000000000000000000000000815260040161151e906125aa565b60405180910390fd5b818103600160008673ffffffffffffffffffffffffffffffffffffffff1673ffffffffffffffffffffffffffffffffffffffff1681526020019081526020016000208190555081600160008573ffffffffffffffffffffffffffffffffffffffff1673ffffffffffffffffffffffffffffffffffffffff16815260200190815260200160002060008282546115bc91906126dc565b925050819055508273ffffffffffffffffffffffffffffffffffffffff168473ffffffffffffffffffffffffffffffffffffffff167fddf252ad1be2c89b69c2b068fc378daa952ba7f163c4a11628f55a4df523b3ef84604051611620919061268a565b60405180910390a3611633848484611d90565b50505050565b60008060009054906101000a900473ffffffffffffffffffffffffffffffffffffffff169050816000806101000a81548173ffffffffffffffffffffffffffffffffffffffff021916908373ffffffffffffffffffffffffffffffffffffffff1602179055508173ffffffffffffffffffffffffffffffffffffffff168173ffffffffffffffffffffffffffffffffffffffff167f8be0079c531659141344cd1fd0a4f28419497f9722a3daafe3b4186f6b6457e060405160405180910390a35050565b42600b60008473ffffffffffffffffffffffffffffffffffffffff1673ffffffffffffffffffffffffffffffffffffffff16815260200190815260200160002060008373ffffffffffffffffffffffffffffffffffffffff1673ffffffffffffffffffffffffffffffffffffffff168152602001908152602001600020819055506001600c60008473ffffffffffffffffffffffffffffffffffffffff1673ffffffffffffffffffffffffffffffffffffffff16815260200190815260200160002060008373ffffffffffffffffffffffffffffffffffffffff1673ffffffffffffffffffffffffffffffffffffffff16815260200190815260200160002060006101000a81548160ff0219169083151502179055506402540be40082824260405160200161182e9392919061248c565b6040516020818303038152906040528051906020012060001c6118519190612a95565b600a60008473ffffffffffffffffffffffffffffffffffffffff1673ffffffffffffffffffffffffffffffffffffffff16815260200190815260200160002060008373ffffffffffffffffffffffffffffffffffffffff1673ffffffffffffffffffffffffffffffffffffffff168152602001908152602001600020819055505050565b60006201595042600b60008673ffffffffffffffffffffffffffffffffffffffff1673ffffffffffffffffffffffffffffffffffffffff16815260200190815260200160002060008573ffffffffffffffffffffffffffffffffffffffff1673ffffffffffffffffffffffffffffffffffffffff168152602001908152602001600020546119639190612979565b11905092915050565b6000600c60008473ffffffffffffffffffffffffffffffffffffffff1673ffffffffffffffffffffffffffffffffffffffff16815260200190815260200160002060008373ffffffffffffffffffffffffffffffffffffffff1673ffffffffffffffffffffffffffffffffffffffff16815260200190815260200160002060006101000a81548160ff0219169083151502179055506000600c60008373ffffffffffffffffffffffffffffffffffffffff1673ffffffffffffffffffffffffffffffffffffffff16815260200190815260200160002060008473ffffffffffffffffffffffffffffffffffffffff1673ffffffffffffffffffffffffffffffffffffffff16815260200190815260200160002060006101000a81548160ff0219169083151502179055505050565b6103096006819055506000806000611ab06105cd565b90506000600a60008773ffffffffffffffffffffffffffffffffffffffff1673ffffffffffffffffffffffffffffffffffffffff16815260200190815260200160002060008673ffffffffffffffffffffffffffffffffffffffff1673ffffffffffffffffffffffffffffffffffffffff1681526020019081526020016000205490506000600a60008773ffffffffffffffffffffffffffffffffffffffff1673ffffffffffffffffffffffffffffffffffffffff16815260200190815260200160002060008873ffffffffffffffffffffffffffffffffffffffff1673ffffffffffffffffffffffffffffffffffffffff168152602001908152602001600020549050600754821015611bc357600194505b600754811015611bd257600193505b848015611bdc5750835b15611c68576009546008546006611bf3919061291f565b84611bfe91906126dc565b1115611c33577f4e487b7100000000000000000000000000000000000000000000000000000000600052600160045260246000fd5b611c4b876008546003611c46919061291f565b611d95565b611c63866008546003611c5e919061291f565b611d95565b611d82565b8415611cf6576009546002600854611c809190612732565b60085485611c8e91906126dc565b611c9891906126dc565b1115611ccd577f4e487b7100000000000000000000000000000000000000000000000000000000600052600160045260246000fd5b611cd987600854611d95565b611cf1866002600854611cec9190612732565b611d95565b611d81565b8315611d80576009546002600854611d0e9190612732565b60085485611d1c91906126dc565b611d2691906126dc565b1115611d5b577f4e487b7100000000000000000000000000000000000000000000000000000000600052600160045260246000fd5b611d73876002600854611d6e9190612732565b611d95565b611d7f86600854611d95565b5b5b5b50505050505050565b505050565b505050565b600073ffffffffffffffffffffffffffffffffffffffff168273ffffffffffffffffffffffffffffffffffffffff161415611e05576040517f08c379a0000000000000000000000000000000000000000000000000000000008152600401611dfc9061266a565b60405180910390fd5b611e1160008383611d8b565b8060036000828254611e2391906126dc565b9250508190555080600160008473ffffffffffffffffffffffffffffffffffffffff1673ffffffffffffffffffffffffffffffffffffffff1681526020019081526020016000206000828254611e7991906126dc565b925050819055508173ffffffffffffffffffffffffffffffffffffffff16600073ffffffffffffffffffffffffffffffffffffffff167fddf252ad1be2c89b69c2b068fc378daa952ba7f163c4a11628f55a4df523b3ef83604051611ede919061268a565b60405180910390a3611ef260008383611d90565b5050565b600081359050611f0581612b7e565b92915050565b600081359050611f1a81612b95565b92915050565b600060208284031215611f3257600080fd5b6000611f4084828501611ef6565b91505092915050565b60008060408385031215611f5c57600080fd5b6000611f6a85828601611ef6565b9250506020611f7b85828601611ef6565b9150509250929050565b600080600060608486031215611f9a57600080fd5b6000611fa886828701611ef6565b9350506020611fb986828701611ef6565b9250506040611fca86828701611f0b565b9150509250925092565b60008060408385031215611fe757600080fd5b6000611ff585828601611ef6565b925050602061200685828601611f0b565b9150509250929050565b60006020828403121561202257600080fd5b600061203084828501611f0b565b91505092915050565b612042816129ad565b82525050565b612059612054826129ad565b612a67565b82525050565b612068816129bf565b82525050565b6000612079826126c0565b61208381856126cb565b9350612093818560208601612a02565b61209c81612b53565b840191505092915050565b60006120b46023836126cb565b91507f45524332303a207472616e7366657220746f20746865207a65726f206164647260008301527f65737300000000000000000000000000000000000000000000000000000000006020830152604082019050919050565b600061211a6026836126cb565b91507f4f776e61626c653a206e6577206f776e657220697320746865207a65726f206160008301527f64647265737300000000000000000000000000000000000000000000000000006020830152604082019050919050565b60006121806022836126cb565b91507f45524332303a20617070726f766520746f20746865207a65726f20616464726560008301527f73730000000000000000000000000000000000000000000000000000000000006020830152604082019050919050565b60006121e66026836126cb565b91507f45524332303a207472616e7366657220616d6f756e742065786365656473206260008301527f616c616e636500000000000000000000000000000000000000000000000000006020830152604082019050919050565b600061224c6028836126cb565b91507f45524332303a207472616e7366657220616d6f756e742065786365656473206160008301527f6c6c6f77616e63650000000000000000000000000000000000000000000000006020830152604082019050919050565b60006122b26020836126cb565b91507f4f776e61626c653a2063616c6c6572206973206e6f7420746865206f776e65726000830152602082019050919050565b60006122f26025836126cb565b91507f45524332303a207472616e736665722066726f6d20746865207a65726f20616460008301527f64726573730000000000000000000000000000000000000000000000000000006020830152604082019050919050565b60006123586024836126cb565b91507f45524332303a20617070726f76652066726f6d20746865207a65726f2061646460008301527f72657373000000000000000000000000000000000000000000000000000000006020830152604082019050919050565b60006123be6025836126cb565b91507f45524332303a2064656372656173656420616c6c6f77616e63652062656c6f7760008301527f207a65726f0000000000000000000000000000000000000000000000000000006020830152604082019050919050565b6000612424601f836126cb565b91507f45524332303a206d696e7420746f20746865207a65726f2061646472657373006000830152602082019050919050565b612460816129eb565b82525050565b612477612472826129eb565b612a8b565b82525050565b612486816129f5565b82525050565b60006124988286612048565b6014820191506124a88285612048565b6014820191506124b88284612466565b602082019150819050949350505050565b60006020820190506124de6000830184612039565b92915050565b60006040820190506124f96000830185612039565b6125066020830184612039565b9392505050565b6000602082019050612522600083018461205f565b92915050565b60006020820190508181036000830152612542818461206e565b905092915050565b60006020820190508181036000830152612563816120a7565b9050919050565b600060208201905081810360008301526125838161210d565b9050919050565b600060208201905081810360008301526125a381612173565b9050919050565b600060208201905081810360008301526125c3816121d9565b9050919050565b600060208201905081810360008301526125e38161223f565b9050919050565b60006020820190508181036000830152612603816122a5565b9050919050565b60006020820190508181036000830152612623816122e5565b9050919050565b600060208201905081810360008301526126438161234b565b9050919050565b60006020820190508181036000830152612663816123b1565b9050919050565b6000602082019050818103600083015261268381612417565b9050919050565b600060208201905061269f6000830184612457565b92915050565b60006020820190506126ba600083018461247d565b92915050565b600081519050919050565b600082825260208201905092915050565b60006126e7826129eb565b91506126f2836129eb565b9250827fffffffffffffffffffffffffffffffffffffffffffffffffffffffffffffffff0382111561272757612726612ac6565b5b828201905092915050565b600061273d826129eb565b9150612748836129eb565b92508261275857612757612af5565b5b828204905092915050565b6000808291508390505b60018511156127ad5780860481111561278957612788612ac6565b5b60018516156127985780820291505b80810290506127a685612b71565b945061276d565b94509492505050565b60006127c1826129eb565b91506127cc836129eb565b92506127f97fffffffffffffffffffffffffffffffffffffffffffffffffffffffffffffffff848461284c565b905092915050565b600061280c826129eb565b9150612817836129f5565b92506128447fffffffffffffffffffffffffffffffffffffffffffffffffffffffffffffffff848461284c565b905092915050565b60008261285c5760019050612918565b8161286a5760009050612918565b8160018114612880576002811461288a576128b9565b6001915050612918565b60ff84111561289c5761289b612ac6565b5b8360020a9150848211156128b3576128b2612ac6565b5b50612918565b5060208310610133831016604e8410600b84101617156128ee5782820a9050838111156128e9576128e8612ac6565b5b612918565b6128fb8484846001612763565b9250905081840481111561291257612911612ac6565b5b81810290505b9392505050565b600061292a826129eb565b9150612935836129eb565b9250817fffffffffffffffffffffffffffffffffffffffffffffffffffffffffffffffff048311821515161561296e5761296d612ac6565b5b828202905092915050565b6000612984826129eb565b915061298f836129eb565b9250828210156129a2576129a1612ac6565b5b828203905092915050565b60006129b8826129cb565b9050919050565b60008115159050919050565b600073ffffffffffffffffffffffffffffffffffffffff82169050919050565b6000819050919050565b600060ff82169050919050565b60005b83811015612a20578082015181840152602081019050612a05565b83811115612a2f576000848401525b50505050565b60006002820490506001821680612a4d57607f821691505b60208210811415612a6157612a60612b24565b5b50919050565b6000612a7282612a79565b9050919050565b6000612a8482612b64565b9050919050565b6000819050919050565b6000612aa0826129eb565b9150612aab836129eb565b925082612abb57612aba612af5565b5b828206905092915050565b7f4e487b7100000000000000000000000000000000000000000000000000000000600052601160045260246000fd5b7f4e487b7100000000000000000000000000000000000000000000000000000000600052601260045260246000fd5b7f4e487b7100000000000000000000000000000000000000000000000000000000600052602260045260246000fd5b6000601f19601f8301169050919050565b60008160601b9050919050565b60008160011c9050919050565b612b87816129ad565b8114612b9257600080fd5b50565b612b9e816129eb565b8114612ba957600080fd5b5056fea2646970667358221220426ccd91b2e91ac4cecea6e2f5f510146e1727d296c998dcb375046dcdbdb98f64736f6c63430008000033",
  "immutableReferences": {},
  "source": "// SPDX-License-Identifier: MIT\npragma solidity 0.8.0;\n\nimport \"@openzeppelin/contracts/access/Ownable.sol\";\nimport \"@openzeppelin/contracts/token/ERC20/ERC20.sol\";\n\n/// @title a game that lets friends try to roll a number below a challenge to earn tokens\n/// @author Krishna Sivapalan\ncontract Dapz is Ownable, ERC20 {\n\n    /// @notice event for when two friends both roll under the challenge\n    /// @param bruh1 is the first out of two friends\n    /// @param bruh2 is the second out of two friends\n    event Bruh(address bruh1, address bruh2);\n\n    uint private difficulty;\n    uint private challenge;\n\n    /// @notice the base token reward amount on any given day\n    uint public dailyReward;\n\n    /// @notice the max supply of the token, set to 1 Quadrillion in constructor\n    uint public maxSupply;\n\n    mapping(address => mapping(address=>uint)) private dailyDaps;\n    mapping(address => mapping(address=>uint)) private lastDap; \n    mapping(address => mapping(address=>bool)) private timedOut;\n    constructor() public ERC20(\"Dap-upz\", \"DAPZ\") {\n        difficulty = uint(keccak256(abi.encodePacked(block.difficulty % block.timestamp)))%10;\n        \n        if(difficulty > 0){\n            difficulty = 1;\n        }\n        \n        challenge = 10 ** difficulty;\n        dailyReward = (11-difficulty) **2;\n        maxSupply = 1000000000000000;\n\n    }\n\n    /// @notice gets the current difficulty level\n    /// @return the current difficulty level\n    function getDifficulty() public view returns (uint){\n        return difficulty;\n    }\n    \n    /// @notice allows the owner to set a new difficulty level and corresponding challenge\n    /// @dev use this for testing without having to rely on random difficulty value\n    /// @param newDifficulty the new difficulty level to set\n    function setDifficulty(uint newDifficulty) external onlyOwner {\n        require(difficulty>=1 && difficulty<=9);\n        difficulty = newDifficulty;\n        dailyReward = (11-difficulty) **2;\n        challenge = 10**difficulty;\n    }\n\n    /// @notice gets the current challenge number\n    /// @return returns the current challenge number\n    function getChallenge() public view returns (uint){\n        return challenge;\n    }\n\n    /// @notice allows the owner to set a new challenge number\n    /// @dev use this for testing without having to rely on random number challenges\n    /// @param newChallenge the new challenge number to set\n    function setChallenge(uint newChallenge) external onlyOwner {\n        challenge = newChallenge;\n    }\n\n    /// @notice allows a player to check their roll with a specific friend\n    /// @param friend the friend that the player rolled with\n    /// @return the value of their previous roll with that friend\n    function getRoll(address friend) public view returns(uint){\n        return dailyDaps[msg.sender][friend];\n    }\n\n    /// @dev an internal function to roll a new number for a player with a friend and store relevant values\n    /// @param sender the person who sent the transaction to execute a new roll\n    /// @param friend the friend who the roller is playing with\n    function _dapRoll(address sender, address friend) internal {\n        lastDap[sender][friend] = block.timestamp;\n        timedOut[sender][friend] = true;\n        dailyDaps[sender][friend] = uint(keccak256(abi.encodePacked(sender,friend,block.timestamp))) % (10**10);\n\n    }\n\n    /// @notice check if a person is timed out from rolling with a friend\n    /// @param friend the friend who the transaction sender is checking if they're timed out with\n    /// @return a bool of whether or not the sender is timed out w/ their friend\n    function isTimedOut(address friend) public view returns(bool){\n        return timedOut[msg.sender][friend];\n    }\n\n    /// @notice when two players have both rolled with each other, this function checks their rolls and mints reward tokens accordingly\n    /// @param sender the second friend in a pair to roll with each other\n    /// @param friend the first person to have rolled with a friend\n    function _checkChallengeAndMint(address sender, address friend) internal{\n        difficulty = 777;\n        bool senderCheck = false;\n        bool friendCheck = false;\n        uint currentSupply = totalSupply();\n\n        uint roll_1 = dailyDaps[sender][friend];\n        uint roll_2 = dailyDaps[friend][sender];\n\n        if(roll_1 < challenge){\n            senderCheck = true;\n        }\n        if(roll_2 < challenge){\n            friendCheck = true;\n        }\n\n        if (senderCheck && friendCheck){\n            assert((currentSupply + 2*3*dailyReward) <= maxSupply);\n            _mint(sender, 3*dailyReward);\n            _mint(friend, 3*dailyReward);\n        }\n        else if (senderCheck){\n            assert((currentSupply + dailyReward + uint(dailyReward/2)) <= maxSupply);\n            _mint(sender, dailyReward);\n            _mint(friend, uint(dailyReward/2));\n        }\n        else if (friendCheck){\n            assert((currentSupply + dailyReward + uint(dailyReward/2)) <= maxSupply);\n            _mint(sender, uint(dailyReward/2));\n            _mint(friend, dailyReward);\n        }\n\n    }\n\n    function _dayPassed(address first, address second) private view returns(bool){\n        return (lastDap[first][second]-block.timestamp) > (1 days + 2000);\n\n    }\n\n    function _resetTimer(address sender, address friend) private {\n        timedOut[sender][friend] = false;\n        timedOut[friend][sender] = false;\n    }  \n\n    /// @notice lets a player roll a pseudo-random number with a friend if they are not timed out\n    /// @param friend the second person who the person who sends the txn wants to play with\n    /// @dev after the second person rolls this function auto calls another internal function to check and mint rewards\n    function DailyRoll(address friend) public {\n\n        \n        if(!timedOut[msg.sender][friend] && !timedOut[friend][msg.sender]){\n            _dapRoll(msg.sender, friend);\n        }\n\n        else if (timedOut[msg.sender][friend] && timedOut[friend][msg.sender]){\n            bool nextDay = _dayPassed(msg.sender, friend);\n            bool nextDay_friend = _dayPassed(friend, msg.sender);\n            \n            if (nextDay && nextDay_friend){  \n                _resetTimer(msg.sender, friend);\n                _dapRoll(msg.sender, friend);                \n            }\n            else {\n                revert();\n            }\n        }\n\n        else if(timedOut[msg.sender][friend]){\n            bool nextDay = _dayPassed(msg.sender, friend);\n            if(nextDay){  \n                _dapRoll(msg.sender, friend);               \n            }\n            else {\n                revert();\n            }\n        }\n        else if((timedOut[friend][msg.sender])){    \n            _dapRoll(msg.sender, friend);\n            _checkChallengeAndMint(msg.sender, friend);\n            emit Bruh(friend, msg.sender);\n\n        }\n\n\n\n\n\n\n\n    }\n\n    \n}\n",
  "sourcePath": "/home/kx/blockchain-developer-bootcamp-final-project/contracts/Dapz.sol",
  "compiler": {
    "name": "solc",
    "version": "0.8.0+commit.c7dfd78e.Emscripten.clang"
  },
  "schemaVersion": "3.4.3",
  "updatedAt": "2021-12-01T00:56:14.035Z",
  "networkType": "ethereum",
  "devdoc": {
    "author": "Krishna Sivapalan",
    "events": {
      "Bruh(address,address)": {
        "params": {
          "bruh1": "is the first out of two friends",
          "bruh2": "is the second out of two friends"
        }
      }
    },
    "kind": "dev",
    "methods": {
      "DailyRoll(address)": {
        "details": "after the second person rolls this function auto calls another internal function to check and mint rewards",
        "params": {
          "friend": "the second person who the person who sends the txn wants to play with"
        }
      },
      "allowance(address,address)": {
        "details": "See {IERC20-allowance}."
      },
      "approve(address,uint256)": {
        "details": "See {IERC20-approve}. Requirements: - `spender` cannot be the zero address."
      },
      "balanceOf(address)": {
        "details": "See {IERC20-balanceOf}."
      },
      "decimals()": {
        "details": "Returns the number of decimals used to get its user representation. For example, if `decimals` equals `2`, a balance of `505` tokens should be displayed to a user as `5.05` (`505 / 10 ** 2`). Tokens usually opt for a value of 18, imitating the relationship between Ether and Wei. This is the value {ERC20} uses, unless this function is overridden; NOTE: This information is only used for _display_ purposes: it in no way affects any of the arithmetic of the contract, including {IERC20-balanceOf} and {IERC20-transfer}."
      },
      "decreaseAllowance(address,uint256)": {
        "details": "Atomically decreases the allowance granted to `spender` by the caller. This is an alternative to {approve} that can be used as a mitigation for problems described in {IERC20-approve}. Emits an {Approval} event indicating the updated allowance. Requirements: - `spender` cannot be the zero address. - `spender` must have allowance for the caller of at least `subtractedValue`."
      },
      "getChallenge()": {
        "returns": {
          "_0": "returns the current challenge number"
        }
      },
      "getDifficulty()": {
        "returns": {
          "_0": "the current difficulty level"
        }
      },
      "getRoll(address)": {
        "params": {
          "friend": "the friend that the player rolled with"
        },
        "returns": {
          "_0": "the value of their previous roll with that friend"
        }
      },
      "increaseAllowance(address,uint256)": {
        "details": "Atomically increases the allowance granted to `spender` by the caller. This is an alternative to {approve} that can be used as a mitigation for problems described in {IERC20-approve}. Emits an {Approval} event indicating the updated allowance. Requirements: - `spender` cannot be the zero address."
      },
      "isTimedOut(address)": {
        "params": {
          "friend": "the friend who the transaction sender is checking if they're timed out with"
        },
        "returns": {
          "_0": "a bool of whether or not the sender is timed out w/ their friend"
        }
      },
      "name()": {
        "details": "Returns the name of the token."
      },
      "owner()": {
        "details": "Returns the address of the current owner."
      },
      "renounceOwnership()": {
        "details": "Leaves the contract without owner. It will not be possible to call `onlyOwner` functions anymore. Can only be called by the current owner. NOTE: Renouncing ownership will leave the contract without an owner, thereby removing any functionality that is only available to the owner."
      },
      "setChallenge(uint256)": {
        "details": "use this for testing without having to rely on random number challenges",
        "params": {
          "newChallenge": "the new challenge number to set"
        }
      },
      "setDifficulty(uint256)": {
        "details": "use this for testing without having to rely on random difficulty value",
        "params": {
          "newDifficulty": "the new difficulty level to set"
        }
      },
      "symbol()": {
        "details": "Returns the symbol of the token, usually a shorter version of the name."
      },
      "totalSupply()": {
        "details": "See {IERC20-totalSupply}."
      },
      "transfer(address,uint256)": {
        "details": "See {IERC20-transfer}. Requirements: - `recipient` cannot be the zero address. - the caller must have a balance of at least `amount`."
      },
      "transferFrom(address,address,uint256)": {
        "details": "See {IERC20-transferFrom}. Emits an {Approval} event indicating the updated allowance. This is not required by the EIP. See the note at the beginning of {ERC20}. Requirements: - `sender` and `recipient` cannot be the zero address. - `sender` must have a balance of at least `amount`. - the caller must have allowance for ``sender``'s tokens of at least `amount`."
      },
      "transferOwnership(address)": {
        "details": "Transfers ownership of the contract to a new account (`newOwner`). Can only be called by the current owner."
      }
    },
    "title": "a game that lets friends try to roll a number below a challenge to earn tokens",
    "version": 1
  },
  "userdoc": {
    "events": {
      "Bruh(address,address)": {
        "notice": "event for when two friends both roll under the challenge"
      }
    },
    "kind": "user",
    "methods": {
      "DailyRoll(address)": {
        "notice": "lets a player roll a pseudo-random number with a friend if they are not timed out"
      },
      "dailyReward()": {
        "notice": "the base token reward amount on any given day"
      },
      "getChallenge()": {
        "notice": "gets the current challenge number"
      },
      "getDifficulty()": {
        "notice": "gets the current difficulty level"
      },
      "getRoll(address)": {
        "notice": "allows a player to check their roll with a specific friend"
      },
      "isTimedOut(address)": {
        "notice": "check if a person is timed out from rolling with a friend"
      },
      "maxSupply()": {
        "notice": "the max supply of the token, set to 1 Quadrillion in constructor"
      },
      "setChallenge(uint256)": {
        "notice": "allows the owner to set a new challenge number"
      },
      "setDifficulty(uint256)": {
        "notice": "allows the owner to set a new difficulty level and corresponding challenge"
      }
    },
    "version": 1
  }
}